{
  "_format": "hh-sol-artifact-1",
  "contractName": "NFTMarket",
  "sourceName": "contracts/NFTMarket.sol",
  "abi": [
    {
      "inputs": [],
      "stateMutability": "nonpayable",
      "type": "constructor"
    },
    {
      "anonymous": false,
      "inputs": [
        {
          "indexed": true,
          "internalType": "uint256",
          "name": "itemId",
          "type": "uint256"
        },
        {
          "indexed": true,
          "internalType": "address",
          "name": "nftContract",
          "type": "address"
        },
        {
          "indexed": true,
          "internalType": "uint256",
          "name": "tokenId",
          "type": "uint256"
        },
        {
          "indexed": false,
          "internalType": "address",
          "name": "seller",
          "type": "address"
        },
        {
          "indexed": false,
          "internalType": "address",
          "name": "owner",
          "type": "address"
        },
        {
          "indexed": false,
          "internalType": "uint256",
          "name": "price",
          "type": "uint256"
        },
        {
          "indexed": false,
          "internalType": "bool",
          "name": "sold",
          "type": "bool"
        }
      ],
      "name": "MarketItemCreated",
      "type": "event"
    },
    {
      "inputs": [
        {
          "internalType": "address",
          "name": "nftContract",
          "type": "address"
        },
        {
          "internalType": "uint256",
          "name": "tokenId",
          "type": "uint256"
        },
        {
          "internalType": "uint256",
          "name": "price",
          "type": "uint256"
        }
      ],
      "name": "createMarketItem",
      "outputs": [],
      "stateMutability": "payable",
      "type": "function"
    },
    {
      "inputs": [
        {
          "internalType": "address",
          "name": "nftContract",
          "type": "address"
        },
        {
          "internalType": "uint256",
          "name": "itemId",
          "type": "uint256"
        }
      ],
      "name": "createMarketSell",
      "outputs": [],
      "stateMutability": "payable",
      "type": "function"
    },
    {
      "inputs": [],
      "name": "fetchMarketItem",
      "outputs": [
        {
          "components": [
            {
              "internalType": "uint256",
              "name": "itemId",
              "type": "uint256"
            },
            {
              "internalType": "address",
              "name": "nftContract",
              "type": "address"
            },
            {
              "internalType": "uint256",
              "name": "tokenId",
              "type": "uint256"
            },
            {
              "internalType": "address payable",
              "name": "seller",
              "type": "address"
            },
            {
              "internalType": "address payable",
              "name": "owner",
              "type": "address"
            },
            {
              "internalType": "uint256",
              "name": "price",
              "type": "uint256"
            },
            {
              "internalType": "bool",
              "name": "sold",
              "type": "bool"
            }
          ],
          "internalType": "struct NFTMarket.MarketItem[]",
          "name": "",
          "type": "tuple[]"
        }
      ],
      "stateMutability": "view",
      "type": "function"
    },
    {
      "inputs": [],
      "name": "fetchMyNFTs",
      "outputs": [
        {
          "components": [
            {
              "internalType": "uint256",
              "name": "itemId",
              "type": "uint256"
            },
            {
              "internalType": "address",
              "name": "nftContract",
              "type": "address"
            },
            {
              "internalType": "uint256",
              "name": "tokenId",
              "type": "uint256"
            },
            {
              "internalType": "address payable",
              "name": "seller",
              "type": "address"
            },
            {
              "internalType": "address payable",
              "name": "owner",
              "type": "address"
            },
            {
              "internalType": "uint256",
              "name": "price",
              "type": "uint256"
            },
            {
              "internalType": "bool",
              "name": "sold",
              "type": "bool"
            }
          ],
          "internalType": "struct NFTMarket.MarketItem[]",
          "name": "",
          "type": "tuple[]"
        }
      ],
      "stateMutability": "view",
      "type": "function"
    },
    {
      "inputs": [],
      "name": "fetchNFTsCreatedBy",
      "outputs": [
        {
          "components": [
            {
              "internalType": "uint256",
              "name": "itemId",
              "type": "uint256"
            },
            {
              "internalType": "address",
              "name": "nftContract",
              "type": "address"
            },
            {
              "internalType": "uint256",
              "name": "tokenId",
              "type": "uint256"
            },
            {
              "internalType": "address payable",
              "name": "seller",
              "type": "address"
            },
            {
              "internalType": "address payable",
              "name": "owner",
              "type": "address"
            },
            {
              "internalType": "uint256",
              "name": "price",
              "type": "uint256"
            },
            {
              "internalType": "bool",
              "name": "sold",
              "type": "bool"
            }
          ],
          "internalType": "struct NFTMarket.MarketItem[]",
          "name": "",
          "type": "tuple[]"
        }
      ],
      "stateMutability": "view",
      "type": "function"
    },
    {
      "inputs": [],
      "name": "getListingPrice",
      "outputs": [
        {
          "internalType": "uint256",
          "name": "",
          "type": "uint256"
        }
      ],
      "stateMutability": "view",
      "type": "function"
    }
  ],
  "bytecode": "0x60806040526608e1bc9bf0400060045534801561001b57600080fd5b50600160008190555033600360006101000a81548173ffffffffffffffffffffffffffffffffffffffff021916908373ffffffffffffffffffffffffffffffffffffffff160217905550611977806100746000396000f3fe6080604052600436106100555760003560e01c806312e855851461005a578063202e37401461008557806358eb2df5146100b057806386d86213146100cc5780638fafd021146100f75780639aa1273714610122575b600080fd5b34801561006657600080fd5b5061006f61013e565b60405161007c9190611662565b60405180910390f35b34801561009157600080fd5b5061009a610148565b6040516100a791906115c0565b60405180910390f35b6100ca60048036038101906100c591906112fc565b6104f8565b005b3480156100d857600080fd5b506100e161085c565b6040516100ee91906115c0565b60405180910390f35b34801561010357600080fd5b5061010c610c0c565b60405161011991906115c0565b60405180910390f35b61013c600480360381019061013791906112c0565b610f38565b005b6000600454905090565b6060600061015660016111f1565b905060008060005b838110156101ff573373ffffffffffffffffffffffffffffffffffffffff166005600060018461018e91906116c7565b815260200190815260200160002060040160009054906101000a900473ffffffffffffffffffffffffffffffffffffffff1673ffffffffffffffffffffffffffffffffffffffff1614156101ec576001836101e991906116c7565b92505b80806101f7906117ab565b91505061015e565b5060008267ffffffffffffffff811115610242577f4e487b7100000000000000000000000000000000000000000000000000000000600052604160045260246000fd5b60405190808252806020026020018201604052801561027b57816020015b610268611215565b8152602001906001900390816102605790505b50905060005b848110156104ed573373ffffffffffffffffffffffffffffffffffffffff16600560006001846102b191906116c7565b815260200190815260200160002060040160009054906101000a900473ffffffffffffffffffffffffffffffffffffffff1673ffffffffffffffffffffffffffffffffffffffff1614156104da5760006005600060018461031291906116c7565b81526020019081526020016000206000015490506000600560008381526020019081526020016000209050806040518060e0016040529081600082015481526020016001820160009054906101000a900473ffffffffffffffffffffffffffffffffffffffff1673ffffffffffffffffffffffffffffffffffffffff1673ffffffffffffffffffffffffffffffffffffffff168152602001600282015481526020016003820160009054906101000a900473ffffffffffffffffffffffffffffffffffffffff1673ffffffffffffffffffffffffffffffffffffffff1673ffffffffffffffffffffffffffffffffffffffff1681526020016004820160009054906101000a900473ffffffffffffffffffffffffffffffffffffffff1673ffffffffffffffffffffffffffffffffffffffff1673ffffffffffffffffffffffffffffffffffffffff168152602001600582015481526020016006820160009054906101000a900460ff1615151515815250508486815181106104bd577f4e487b7100000000000000000000000000000000000000000000000000000000600052603260045260246000fd5b60200260200101819052506001856104d591906116c7565b945050505b80806104e5906117ab565b915050610281565b508094505050505090565b6002600054141561053e576040517f08c379a000000000000000000000000000000000000000000000000000000000815260040161053590611622565b60405180910390fd5b600260008190555060008111610589576040517f08c379a000000000000000000000000000000000000000000000000000000000815260040161058090611642565b60405180910390fd5b60045434146105cd576040517f08c379a00000000000000000000000000000000000000000000000000000000081526004016105c4906115e2565b60405180910390fd5b6105d760016111ff565b60006105e360016111f1565b90506040518060e001604052808281526020018573ffffffffffffffffffffffffffffffffffffffff1681526020018481526020013373ffffffffffffffffffffffffffffffffffffffff168152602001600073ffffffffffffffffffffffffffffffffffffffff16815260200183815260200160001515815250600560008381526020019081526020016000206000820151816000015560208201518160010160006101000a81548173ffffffffffffffffffffffffffffffffffffffff021916908373ffffffffffffffffffffffffffffffffffffffff1602179055506040820151816002015560608201518160030160006101000a81548173ffffffffffffffffffffffffffffffffffffffff021916908373ffffffffffffffffffffffffffffffffffffffff16021790555060808201518160040160006101000a81548173ffffffffffffffffffffffffffffffffffffffff021916908373ffffffffffffffffffffffffffffffffffffffff16021790555060a0820151816005015560c08201518160060160006101000a81548160ff0219169083151502179055509050508373ffffffffffffffffffffffffffffffffffffffff166323b872dd3330866040518463ffffffff1660e01b81526004016107c493929190611544565b600060405180830381600087803b1580156107de57600080fd5b505af11580156107f2573d6000803e3d6000fd5b50505050828473ffffffffffffffffffffffffffffffffffffffff16827f045dfa01dcba2b36aba1d3dc4a874f4b0c5d2fbeb8d2c4b34a7d88c8d8f929d1336000876000604051610846949392919061157b565b60405180910390a4506001600081905550505050565b6060600061086a60016111f1565b905060008060005b83811015610913573373ffffffffffffffffffffffffffffffffffffffff16600560006001846108a291906116c7565b815260200190815260200160002060030160009054906101000a900473ffffffffffffffffffffffffffffffffffffffff1673ffffffffffffffffffffffffffffffffffffffff161415610900576001836108fd91906116c7565b92505b808061090b906117ab565b915050610872565b5060008267ffffffffffffffff811115610956577f4e487b7100000000000000000000000000000000000000000000000000000000600052604160045260246000fd5b60405190808252806020026020018201604052801561098f57816020015b61097c611215565b8152602001906001900390816109745790505b50905060005b84811015610c01573373ffffffffffffffffffffffffffffffffffffffff16600560006001846109c591906116c7565b815260200190815260200160002060030160009054906101000a900473ffffffffffffffffffffffffffffffffffffffff1673ffffffffffffffffffffffffffffffffffffffff161415610bee57600060056000600184610a2691906116c7565b81526020019081526020016000206000015490506000600560008381526020019081526020016000209050806040518060e0016040529081600082015481526020016001820160009054906101000a900473ffffffffffffffffffffffffffffffffffffffff1673ffffffffffffffffffffffffffffffffffffffff1673ffffffffffffffffffffffffffffffffffffffff168152602001600282015481526020016003820160009054906101000a900473ffffffffffffffffffffffffffffffffffffffff1673ffffffffffffffffffffffffffffffffffffffff1673ffffffffffffffffffffffffffffffffffffffff1681526020016004820160009054906101000a900473ffffffffffffffffffffffffffffffffffffffff1673ffffffffffffffffffffffffffffffffffffffff1673ffffffffffffffffffffffffffffffffffffffff168152602001600582015481526020016006820160009054906101000a900460ff161515151581525050848681518110610bd1577f4e487b7100000000000000000000000000000000000000000000000000000000600052603260045260246000fd5b6020026020010181905250600185610be991906116c7565b945050505b8080610bf9906117ab565b915050610995565b508094505050505090565b60606000610c1a60016111f1565b90506000610c2860026111f1565b610c3260016111f1565b610c3c919061171d565b90506000808267ffffffffffffffff811115610c81577f4e487b7100000000000000000000000000000000000000000000000000000000600052604160045260246000fd5b604051908082528060200260200182016040528015610cba57816020015b610ca7611215565b815260200190600190039081610c9f5790505b50905060005b84811015610f2d57600073ffffffffffffffffffffffffffffffffffffffff1660056000600184610cf191906116c7565b815260200190815260200160002060040160009054906101000a900473ffffffffffffffffffffffffffffffffffffffff1673ffffffffffffffffffffffffffffffffffffffff161415610f1a57600060056000600184610d5291906116c7565b81526020019081526020016000206000015490506000600560008381526020019081526020016000209050806040518060e0016040529081600082015481526020016001820160009054906101000a900473ffffffffffffffffffffffffffffffffffffffff1673ffffffffffffffffffffffffffffffffffffffff1673ffffffffffffffffffffffffffffffffffffffff168152602001600282015481526020016003820160009054906101000a900473ffffffffffffffffffffffffffffffffffffffff1673ffffffffffffffffffffffffffffffffffffffff1673ffffffffffffffffffffffffffffffffffffffff1681526020016004820160009054906101000a900473ffffffffffffffffffffffffffffffffffffffff1673ffffffffffffffffffffffffffffffffffffffff1673ffffffffffffffffffffffffffffffffffffffff168152602001600582015481526020016006820160009054906101000a900460ff161515151581525050848681518110610efd577f4e487b7100000000000000000000000000000000000000000000000000000000600052603260045260246000fd5b6020026020010181905250600185610f1591906116c7565b945050505b8080610f25906117ab565b915050610cc0565b508094505050505090565b60026000541415610f7e576040517f08c379a0000000000000000000000000000000000000000000000000000000008152600401610f7590611622565b60405180910390fd5b6002600081905550600060056000838152602001908152602001600020600501549050600060056000848152602001908152602001600020600201549050813414610ffe576040517f08c379a0000000000000000000000000000000000000000000000000000000008152600401610ff590611602565b60405180910390fd5b6005600084815260200190815260200160002060030160009054906101000a900473ffffffffffffffffffffffffffffffffffffffff1673ffffffffffffffffffffffffffffffffffffffff166108fc349081150290604051600060405180830381858888f1935050505015801561107a573d6000803e3d6000fd5b508373ffffffffffffffffffffffffffffffffffffffff166323b872dd3033846040518463ffffffff1660e01b81526004016110b893929190611544565b600060405180830381600087803b1580156110d257600080fd5b505af11580156110e6573d6000803e3d6000fd5b50505050336005600085815260200190815260200160002060040160006101000a81548173ffffffffffffffffffffffffffffffffffffffff021916908373ffffffffffffffffffffffffffffffffffffffff16021790555060016005600085815260200190815260200160002060060160006101000a81548160ff02191690831515021790555061117860026111ff565b600360009054906101000a900473ffffffffffffffffffffffffffffffffffffffff1673ffffffffffffffffffffffffffffffffffffffff166108fc6004549081150290604051600060405180830381858888f193505050501580156111e2573d6000803e3d6000fd5b50505060016000819055505050565b600081600001549050919050565b6001816000016000828254019250508190555050565b6040518060e0016040528060008152602001600073ffffffffffffffffffffffffffffffffffffffff16815260200160008152602001600073ffffffffffffffffffffffffffffffffffffffff168152602001600073ffffffffffffffffffffffffffffffffffffffff168152602001600081526020016000151581525090565b6000813590506112a581611913565b92915050565b6000813590506112ba8161192a565b92915050565b600080604083850312156112d357600080fd5b60006112e185828601611296565b92505060206112f2858286016112ab565b9150509250929050565b60008060006060848603121561131157600080fd5b600061131f86828701611296565b9350506020611330868287016112ab565b9250506040611341868287016112ab565b9150509250925092565b60006113578383611498565b60e08301905092915050565b61136c81611763565b82525050565b61137b81611751565b82525050565b61138a81611751565b82525050565b600061139b8261168d565b6113a581856116a5565b93506113b08361167d565b8060005b838110156113e15781516113c8888261134b565b97506113d383611698565b9250506001810190506113b4565b5085935050505092915050565b6113f781611775565b82525050565b61140681611775565b82525050565b60006114196024836116b6565b915061142482611823565b604082019050919050565b600061143c6040836116b6565b915061144782611872565b604082019050919050565b600061145f601f836116b6565b915061146a826118c1565b602082019050919050565b6000611482601c836116b6565b915061148d826118ea565b602082019050919050565b60e0820160008201516114ae6000850182611526565b5060208201516114c16020850182611372565b5060408201516114d46040850182611526565b5060608201516114e76060850182611363565b5060808201516114fa6080850182611363565b5060a082015161150d60a0850182611526565b5060c082015161152060c08501826113ee565b50505050565b61152f816117a1565b82525050565b61153e816117a1565b82525050565b60006060820190506115596000830186611381565b6115666020830185611381565b6115736040830184611535565b949350505050565b60006080820190506115906000830187611381565b61159d6020830186611381565b6115aa6040830185611535565b6115b760608301846113fd565b95945050505050565b600060208201905081810360008301526115da8184611390565b905092915050565b600060208201905081810360008301526115fb8161140c565b9050919050565b6000602082019050818103600083015261161b8161142f565b9050919050565b6000602082019050818103600083015261163b81611452565b9050919050565b6000602082019050818103600083015261165b81611475565b9050919050565b60006020820190506116776000830184611535565b92915050565b6000819050602082019050919050565b600081519050919050565b6000602082019050919050565b600082825260208201905092915050565b600082825260208201905092915050565b60006116d2826117a1565b91506116dd836117a1565b9250827fffffffffffffffffffffffffffffffffffffffffffffffffffffffffffffffff03821115611712576117116117f4565b5b828201905092915050565b6000611728826117a1565b9150611733836117a1565b925082821015611746576117456117f4565b5b828203905092915050565b600061175c82611781565b9050919050565b600061176e82611781565b9050919050565b60008115159050919050565b600073ffffffffffffffffffffffffffffffffffffffff82169050919050565b6000819050919050565b60006117b6826117a1565b91507fffffffffffffffffffffffffffffffffffffffffffffffffffffffffffffffff8214156117e9576117e86117f4565b5b600182019050919050565b7f4e487b7100000000000000000000000000000000000000000000000000000000600052601160045260246000fd5b7f5072696365206d75737420626520657175616c20746f206c697374696e67207060008201527f7269636500000000000000000000000000000000000000000000000000000000602082015250565b7f506c65617365207375626d6974207468652061736b696e67207072696365206960008201527f6e20746865206f7264657220746f20636f6d706c657465207075726368617365602082015250565b7f5265656e7472616e637947756172643a207265656e7472616e742063616c6c00600082015250565b7f5072696365206d757374206265206174206c6561737420312077656900000000600082015250565b61191c81611751565b811461192757600080fd5b50565b611933816117a1565b811461193e57600080fd5b5056fea2646970667358221220c1bfc3920db0449e042fa36846cb58f736bfe48df6f6f94849cdd0d8b04cb37564736f6c63430008040033",
  "linkReferences": {},
  "deployedLinkReferences": {}
}